:107E000001C0E8C0112484B7882361F0982F9A70CC
:107E1000923041F081FF02C097EF94BF282E80E09E
:107E2000C4D0EEC085E0809381008EE0BED0259A5C
:107E30005B9A539A86E020E33CEF91E03093850013
:107E40002093840096BBB09BFECF1D9AA8958150CD
:107E5000A9F793E0E92EDD24D39425E0C22E31E189
:107E6000B32E8FD0813459F48CD0182FA4D083E056
:107E7000113809F488E076D080E174D0F2CF8234F2
:107E800019F484E1A0D0F8CF853411F485E0FACF5D
:107E9000853541F476D0C82F74D0D82FCC0FDD1F94
:107EA0008AD0EACF863521F484E08DD080E0E3CF1C
:107EB000843609F034C065D064D0F82E62D0A82E84
:107EC00000E011E048018FEF881A980A5AD0F801B3
:107ED00080838401F810F6CF6ED0F5E4AF1201C0B4
:107EE000FFCFFE01E7BEE89507B600FCFDCFFE011F
:107EF000A0E0B1E0CD0102962D913C910901D7BEE1
:107F0000E89511243296DC01F812F4CFFE01C7BEC9
:107F1000E89507B600FCFDCFB7BEE895ADCF843736
:107F200091F42FD02ED0F82E2CD0182F44D0153409
:107F300009F4FFCF8E01F80185918F0113D0FA94D7
:107F4000F110F9CF99CF853739F435D08EE10AD0C9
:107F500085E908D08FE08FCF813509F0A1CF88E087
:107F600024D09ECF2AE030E08095089410F45B98EE
:107F700002C05B9A000015D014D086952A95B1F7FF
:107F80000895A89529E030E04C99FECF0AD009D099
:107F900008D088944C9908942A9511F08795F7CFCA
:107FA000089597E89A95F1F70895E0E6F0E098E1F2
:107FB000908380830895E5DF803219F088E0F5DF53
:107FC000FFCF84E1CFCFCF93C82FDBDFC150E9F7DC
:107FD000CF91F1CFFC010A0167BFE895112407B6E4
:107FE00000FCFDCF667029F0452B19F481E187BFB5
:047FF000E895089573
:027FFE00030876
:0400000300007E007B
:00000001FF
